:100000000C9444000C9400020C9400020C94000226
:100010000C9400020C9400020C9400020C94000258
:100020000C9400020C9400020C9400020C94000248
:100030000C9400020C9400020C9400020C94000238
:100040000C9400020C9400020C9400020C94000228
:100050000C9400020C9400020C9400020C94000218
:100060000C9400020C9400026C00760080008A0060
:1000700094009E00A800B200DD00E700F100FB0044
:1000800005010F011901230111241FBECFEFD8E094
:10009000DEBFCDBF0E94D8010C94EF01F894FFCFD2
:1000A000CF93DF930F92CDB7DEB789838981882FF5
:1000B00090E0092E000CAA0BBB0B40E050E027E0BB
:1000C00030E0841B950B2817390708F455C08C5C69
:1000D0009F4FFC010C94FA0185E290E025E230E0AC
:1000E000F90120812460FC01208346C085E290E074
:1000F00025E230E0F90120812260FC0120833CC030
:1001000085E290E025E230E0F90120812160FC01E8
:10011000208332C08BE290E02BE230E0F9012081B5
:100120002068FC01208328C08BE290E02BE230E0C5
:10013000F90120812062FC0120831EC08BE290E047
:100140002BE230E0F90120812061FC01208314C002
:1001500088E290E028E230E0F90120812061FC0192
:1001600020830AC088E290E028E230E0F901208193
:100170002860FC012083000000000F90DF91CF91E8
:020180000895E0
:10018200CF93DF930F92CDB7DEB789838981882F12
:1001920090E0092E000CAA0BBB0B40E050E027E0D8
:1001A20030E0841B950B2817390708F455C0845C8E
:1001B2009F4FFC010C94FA0185E290E025E230E0C9
:1001C200F90120812B7FFC01208346C085E290E06B
:1001D20025E230E0F90120812D7FFC0120833CC023
:1001E20085E290E025E230E0F90120812E7FFC01DA
:1001F200208332C08BE290E02BE230E0F9012081D3
:100202002F77FC01208328C08BE290E02BE230E0C4
:10021200F90120812F7DFC0120831EC08BE290E03A
:100222002BE230E0F90120812F7EFC01208314C0F3
:1002320088E290E028E230E0F90120812F7EFC0183
:1002420020830AC088E290E028E230E0F9012081B0
:10025200277FFC012083000000000F90DF91CF91E7
:020262000895FD
:10026400CF93DF93CDB7DEB784E290E024E230E0B1
:10027400F90120812460FC01208384E290E024E2DF
:1002840030E0F90120812260FC01208384E290E0C7
:1002940024E230E0F90120812160FC0120838AE21C
:1002A40090E02AE230E0F90120812068FC012083FB
:1002B4008AE290E02AE230E0F90120812062FC0128
:1002C40020838AE290E02AE230E0F9012081206173
:1002D400FC01208387E290E027E230E0F9012081ED
:1002E4002061FC01208387E290E027E230E0F901FD
:1002F40020812860FC0120830000DF91CF910895C4
:10030400CF93DF9300D00F92CDB7DEB78B831A82E1
:10031400198219C08B81882F90E0098002C09595BD
:1003240087950A94E2F781709927892B21F08981B6
:100334000E94500003C089810E94C10089819A8172
:1003440001969A83898389819A8108971CF3000016
:0C0354000F900F900F90DF91CF91089553
:10036000CF93DF9300D000D0CDB7DEB71C821B82C5
:1003700012C01A82198205C089819A8101969A83D6
:10038000898389819A8185369105B0F38B819C811F
:1003900001969C838B838B819C81813A9F4048F39B
:1003A00000000F900F900F900F90DF91CF91089564
:1003B000CF93DF9300D00F92CDB7DEB71B821A82A6
:1003C00019820E94320189819A819C012F5F3F4FDF
:0E03D0003A8329830E9482010E94B001F4CF7B
:1003DE00EC010E9405020E940402CE010E94060258
:0603EE00CE010E94020294
:0C03F400EE0FFF1F0590F491E02D09941E
:040400000C94000058
:040404000E944E0004
:02040800089555
:02040A00089553
:02040C00089551
:00000001FF
