:100000000C9447000C942D020C942D020C942D029C
:100010000C942D020C942D020C942D020C942D02A4
:100020000C942D020C942D020C942D020C942D0294
:100030000C942D020C94F3010C942D020C942D02BF
:100040000C942D020C942D020C942D020C942D0274
:100050000C942D020C942D020C942D020C942D0264
:100060000C942D020C942D028D009700A100AB0082
:10007000B500BF00C900D300FE00080112011C0139
:10008000260130013A0144010100010180001124E0
:100090001FBECFEFD8E0DEBFCDBFE8E8F0E040E024
:1000A00017C0B591A59135912591059107FD0CC01B
:1000B00095918591EF01F92FE82F05900D92A217E8
:1000C000B307D9F7FE0104C01D92A217B307E1F7E9
:1000D000ED38F40731F70E940B020C941C02F894DF
:0200E000FFCF50
:1000E200CF93DF930F92CDB7DEB789838981882FB3
:1000F20090E0092E000CAA0BBB0B40E050E027E079
:1001020030E0841B950B2817390708F455C08C5C26
:100112009F4FFC010C94270285E290E025E230E03B
:10012200F90120812460FC01208346C085E290E031
:1001320025E230E0F90120812260FC0120833CC0ED
:1001420085E290E025E230E0F90120812160FC01A6
:10015200208332C08BE290E02BE230E0F901208173
:100162002068FC01208328C08BE290E02BE230E083
:10017200F90120812062FC0120831EC08BE290E005
:100182002BE230E0F90120812061FC01208314C0C0
:1001920088E290E028E230E0F90120812061FC0150
:1001A20020830AC088E290E028E230E0F901208151
:1001B2002860FC012083000000000F90DF91CF91A6
:0201C20008959E
:1001C400CF93DF930F92CDB7DEB789838981882FD0
:1001D40090E0092E000CAA0BBB0B40E050E027E096
:1001E40030E0841B950B2817390708F455C0845C4C
:1001F4009F4FFC010C94270285E290E025E230E059
:10020400F90120812B7FFC01208346C085E290E028
:1002140025E230E0F90120812D7FFC0120833CC0E0
:1002240085E290E025E230E0F90120812E7FFC0197
:10023400208332C08BE290E02BE230E0F901208190
:100244002F77FC01208328C08BE290E02BE230E082
:10025400F90120812F7DFC0120831EC08BE290E0F8
:100264002BE230E0F90120812F7EFC01208314C0B1
:1002740088E290E028E230E0F90120812F7EFC0141
:1002840020830AC088E290E028E230E0F90120816E
:10029400277FFC012083000000000F90DF91CF91A5
:0202A4000895BB
:1002A600CF93DF93CDB7DEB784E290E024E230E06F
:1002B600F90120812460FC01208384E290E024E29D
:1002C60030E0F90120812260FC01208384E290E085
:1002D60024E230E0F90120812160FC0120838AE2DA
:1002E60090E02AE230E0F90120812068FC012083B9
:1002F6008AE290E02AE230E0F90120812062FC01E6
:1003060020838AE290E02AE230E0F9012081206130
:10031600FC01208387E290E027E230E0F9012081AA
:100326002061FC01208387E290E027E230E0F901BA
:1003360020812860FC0120830000DF91CF91089581
:10034600CF93DF9300D0CDB7DEB78A83198219C069
:100356008A81882F90E02981222F30E002C095956E
:1003660087952A95E2F781709927892B21F0898153
:100376000E94710003C089810E94E20089818F5F1B
:1003860089838981883020F300000F900F90DF91D8
:04039600CF91089566
:10039A00CF93DF93CDB7DEB780E890E0FC011082FF
:1003AA0081E890E028E0FC01208388E890E024E2DC
:1003BA0034EFFC013183208381E890E021E830E0CA
:1003CA00F90120812360FC0120838FE690E027E079
:0C03DA00FC0120830000DF91CF9108950A
:1003E6001F920F920FB60F9211248F93CF93DF9324
:1003F600CDB7DEB7809100018F5F809300010000CA
:10040600DF91CF918F910F900FBE0F901F9018958F
:10041600CF93DF93CDB7DEB7F89484E080930001E5
:100426000E9453010E94CD01789480E00E94A301AE
:02043600FCCFF9
:10043800EC010E9432020E943102CE010E94330276
:06044800CE010E942F020C
:0C044E00EE0FFF1F0590F491E02D0994C3
:04045A000C940000FE
:04045E000E946F0089
:020462000895FB
:020464000895F9
:020466000895F7
:00000001FF
